{
  "_format": "hh-sol-artifact-1",
  "contractName": "Counter",
  "sourceName": "contracts/Counter.sol",
  "abi": [
    {
      "inputs": [],
      "stateMutability": "nonpayable",
      "type": "constructor"
    },
    {
      "anonymous": false,
      "inputs": [
        {
          "indexed": false,
          "internalType": "uint256",
          "name": "counter",
          "type": "uint256"
        }
      ],
      "name": "CounterIncrement",
      "type": "event"
    },
    {
      "inputs": [],
      "name": "getCount",
      "outputs": [
        {
          "internalType": "uint256",
          "name": "",
          "type": "uint256"
        }
      ],
      "stateMutability": "view",
      "type": "function"
    },
    {
      "inputs": [],
      "name": "increment",
      "outputs": [],
      "stateMutability": "nonpayable",
      "type": "function"
    }
  ],
  "bytecode": "0x60806040526000805534801561001457600080fd5b506101a0806100246000396000f3fe608060405234801561001057600080fd5b50600436106100365760003560e01c8063a87d942c1461003b578063d09de08a14610059575b600080fd5b610043610063565b60405161005091906100cd565b60405180910390f35b61006161006c565b005b60008054905090565b60008081548092919061007e906100f2565b91905055507fe2ea736f80f92a510d75d1a96b5c1d5e5544283362b7acd97390d60ea1c7d1496000546040516100b491906100cd565b60405180910390a1565b6100c7816100e8565b82525050565b60006020820190506100e260008301846100be565b92915050565b6000819050919050565b60006100fd826100e8565b91507fffffffffffffffffffffffffffffffffffffffffffffffffffffffffffffffff8214156101305761012f61013b565b5b600182019050919050565b7f4e487b7100000000000000000000000000000000000000000000000000000000600052601160045260246000fdfea26469706673582212208732fa80837598d8c64b03f4e6917958fbc00789b3b720bc0be4169e3d88e34f64736f6c63430008040033",
  "linkReferences": {},
  "deployedLinkReferences": {}
}